:100000000EC015C023C013C012C011C010C00FC055
:100010000EC00DC00CC00BC00AC009C008C011241E
:100020001FBECFE5D2E0DEBFCDBF1AD029C0E8CFDA
:10003000379885B7877E806185BF85B7806285BF29
:10004000889585B78F7D85BF379A08951F920F9247
:100050000FB60F9211240F900FBE0F901F9018959E
:10006000B89AB9988BB780628BBFA99AC09A8FE66D
:1000700097E10197F1F700C00000C098D9DFF6CFF3
:04008000F894FFCF22
:00000001FF
